{
  "contractName": "deviceData",
  "abi": [
    {
      "constant": false,
      "inputs": [],
      "name": "longRecord",
      "outputs": [],
      "payable": false,
      "stateMutability": "nonpayable",
      "type": "function"
    },
    {
      "constant": false,
      "inputs": [
        {
          "name": "nameData",
          "type": "string"
        },
        {
          "name": "staData",
          "type": "string"
        },
        {
          "name": "repairAmount",
          "type": "uint256"
        },
        {
          "name": "officialRepairAmount",
          "type": "uint256"
        }
      ],
      "name": "record",
      "outputs": [],
      "payable": false,
      "stateMutability": "nonpayable",
      "type": "function"
    },
    {
      "constant": true,
      "inputs": [
        {
          "name": "i",
          "type": "uint256"
        }
      ],
      "name": "getRecord",
      "outputs": [
        {
          "name": "",
          "type": "string"
        },
        {
          "name": "",
          "type": "string"
        },
        {
          "name": "",
          "type": "uint256"
        },
        {
          "name": "",
          "type": "uint256"
        }
      ],
      "payable": false,
      "stateMutability": "view",
      "type": "function"
    }
  ],
  "bytecode": "0x6080604052600060055534801561001557600080fd5b506108fa806100256000396000f300608060405260043610610057576000357c0100000000000000000000000000000000000000000000000000000000900463ffffffff16806303e9e6091461005c5780637d82b0f31461017c578063d6e5560a14610193575b600080fd5b34801561006857600080fd5b5061008760048036038101908080359060200190929190505050610256565b604051808060200180602001858152602001848152602001838103835287818151815260200191508051906020019080838360005b838110156100d75780820151818401526020810190506100bc565b50505050905090810190601f1680156101045780820380516001836020036101000a031916815260200191505b50838103825286818151815260200191508051906020019080838360005b8381101561013d578082015181840152602081019050610122565b50505050905090810190601f16801561016a5780820380516001836020036101000a031916815260200191505b50965050505050505060405180910390f35b34801561018857600080fd5b5061019161059c565b005b34801561019f57600080fd5b50610254600480360381019080803590602001908201803590602001908080601f0160208091040260200160405190810160405280939291908181526020018383808284378201915050505050509192919290803590602001908201803590602001908080601f016020809104026020016040519081016040528093929190818152602001838380828437820191505050505050919291929080359060200190929190803590602001909291905050506105de565b005b6060806000806000809054906101000a900473ffffffffffffffffffffffffffffffffffffffff1673ffffffffffffffffffffffffffffffffffffffff163373ffffffffffffffffffffffffffffffffffffffff161415156102b757600080fd5b60016000868152602001908152602001600020600260016000888152602001908152602001600020604051808280546001816001161561010002031660029004801561033a5780601f1061031857610100808354040283529182019161033a565b820191906000526020600020905b815481529060010190602001808311610326575b5050915050908152602001604051809103902060036001600089815260200190815260200160002060405180828054600181600116156101000203166002900480156103bd5780601f1061039b5761010080835404028352918201916103bd565b820191906000526020600020905b8154815290600101906020018083116103a9575b50509150509081526020016040518091039020546004600160008a815260200190815260200160002060405180828054600181600116156101000203166002900480156104415780601f1061041f576101008083540402835291820191610441565b820191906000526020600020905b81548152906001019060200180831161042d575b5050915050908152602001604051809103902054838054600181600116156101000203166002900480601f0160208091040260200160405190810160405280929190818152602001828054600181600116156101000203166002900480156104ea5780601f106104bf576101008083540402835291602001916104ea565b820191906000526020600020905b8154815290600101906020018083116104cd57829003601f168201915b50505050509350828054600181600116156101000203166002900480601f0160208091040260200160405190810160405280929190818152602001828054600181600116156101000203166002900480156105865780601f1061055b57610100808354040283529160200191610586565b820191906000526020600020905b81548152906001019060200180831161056957829003601f168201915b5050505050925093509350935093509193509193565b336000806101000a81548173ffffffffffffffffffffffffffffffffffffffff021916908373ffffffffffffffffffffffffffffffffffffffff160217905550565b6000809054906101000a900473ffffffffffffffffffffffffffffffffffffffff1673ffffffffffffffffffffffffffffffffffffffff163373ffffffffffffffffffffffffffffffffffffffff1614151561063957600080fd5b836001600060055481526020019081526020016000209080519060200190610662929190610829565b5082600260016000600554815260200190815260200160002060405180828054600181600116156101000203166002900480156106d65780601f106106b45761010080835404028352918201916106d6565b820191906000526020600020905b8154815290600101906020018083116106c2575b5050915050908152602001604051809103902090805190602001906106fc929190610829565b5081600360016000600554815260200190815260200160002060405180828054600181600116156101000203166002900480156107705780601f1061074e576101008083540402835291820191610770565b820191906000526020600020905b81548152906001019060200180831161075c575b505091505090815260200160405180910390208190555080600460016000600554815260200190815260200160002060405180828054600181600116156101000203166002900480156107fa5780601f106107d85761010080835404028352918201916107fa565b820191906000526020600020905b8154815290600101906020018083116107e6575b505091505090815260200160405180910390208190555060056000815480929190600101919050555050505050565b828054600181600116156101000203166002900490600052602060002090601f016020900481019282601f1061086a57805160ff1916838001178555610898565b82800160010185558215610898579182015b8281111561089757825182559160200191906001019061087c565b5b5090506108a591906108a9565b5090565b6108cb91905b808211156108c75760008160009055506001016108af565b5090565b905600a165627a7a7230582015aafdcdb0aeae86a29ce1b64a71ec508fc173f60302bdf6cfb61b81b1e2e3550029",
  "source": "pragma solidity ^0.4.24;\r\n\r\ncontract deviceData {\r\n    struct device{\r\n            string name;//设备\r\n            string state;//状态\r\n            uint repairAmount;//修理费用\r\n            uint officialRepairAmount;//官方费用\r\n        }//定义设备数据变量 \r\n    address user;\r\n    mapping (uint => string) nam;\r\n    mapping (string => string) sta;\r\n    mapping (string => uint) rep;\r\n    mapping (string => uint) off;\r\n    uint x=0;//设备序列号\r\n    function longRecord() public{\r\n        user = msg.sender;\r\n    }//记录合约创建者地址\r\n    function record(string nameData,string staData,uint repairAmount,uint officialRepairAmount) public{\r\n        require(msg.sender == user);//安全验证\r\n        nam[x] = nameData;\r\n        sta[nam[x]] = staData;\r\n        rep[nam[x]] = repairAmount;\r\n        off[nam[x]] = officialRepairAmount;\r\n        x++;\r\n    }//存入设备数据，并以设备名映射至状态及费用\r\n    function getRecord(uint i) constant public returns (string,string,uint,uint){\r\n        require(msg.sender == user);\r\n        return (nam[i],sta[nam[i]],rep[nam[i]],off[nam[i]]);\r\n    }//读取设备数据 \r\n}\r\n",
  "sourcePath": "D:/chain_/ins/ChainOwn/contracts/deviceData .sol",
  "compiler": {
    "name": "solc",
    "version": "0.4.24+commit.e67f0147.Emscripten.clang"
  },
  "schemaVersion": "3.0.11",
  "updatedAt": "2019-08-29T16:46:40.487Z",
  "devdoc": {
    "methods": {}
  },
  "userdoc": {
    "methods": {}
  }
}