{
  "contractName": "resultData",
  "abi": [
    {
      "constant": false,
      "inputs": [],
      "name": "LongRecord",
      "outputs": [],
      "payable": false,
      "stateMutability": "nonpayable",
      "type": "function"
    },
    {
      "constant": false,
      "inputs": [
        {
          "name": "result",
          "type": "string"
        }
      ],
      "name": "record",
      "outputs": [],
      "payable": false,
      "stateMutability": "nonpayable",
      "type": "function"
    },
    {
      "constant": true,
      "inputs": [
        {
          "name": "i",
          "type": "uint256"
        }
      ],
      "name": "getRecord",
      "outputs": [
        {
          "name": "",
          "type": "string"
        }
      ],
      "payable": false,
      "stateMutability": "view",
      "type": "function"
    }
  ],
  "bytecode": "0x6080604052600060015534801561001557600080fd5b50610440806100256000396000f300608060405260043610610057576000357c0100000000000000000000000000000000000000000000000000000000900463ffffffff16806303e9e6091461005c5780638da6941c14610102578063e51ace1614610119575b600080fd5b34801561006857600080fd5b5061008760048036038101908080359060200190929190505050610182565b6040518080602001828103825283818151815260200191508051906020019080838360005b838110156100c75780820151818401526020810190506100ac565b50505050905090810190601f1680156100f45780820380516001836020036101000a031916815260200191505b509250505060405180910390f35b34801561010e57600080fd5b50610117610292565b005b34801561012557600080fd5b50610180600480360381019080803590602001908201803590602001908080601f01602080910402602001604051908101604052809392919081815260200183838082843782019150505050505091929192905050506102d5565b005b6060600260009054906101000a900473ffffffffffffffffffffffffffffffffffffffff1673ffffffffffffffffffffffffffffffffffffffff163373ffffffffffffffffffffffffffffffffffffffff161415156101e057600080fd5b6000808381526020019081526020016000208054600181600116156101000203166002900480601f0160208091040260200160405190810160405280929190818152602001828054600181600116156101000203166002900480156102865780601f1061025b57610100808354040283529160200191610286565b820191906000526020600020905b81548152906001019060200180831161026957829003601f168201915b50505050509050919050565b33600260006101000a81548173ffffffffffffffffffffffffffffffffffffffff021916908373ffffffffffffffffffffffffffffffffffffffff160217905550565b600260009054906101000a900473ffffffffffffffffffffffffffffffffffffffff1673ffffffffffffffffffffffffffffffffffffffff163373ffffffffffffffffffffffffffffffffffffffff1614151561033157600080fd5b806000806001548152602001908152602001600020908051906020019061035992919061036f565b5060016000815480929190600101919050555050565b828054600181600116156101000203166002900490600052602060002090601f016020900481019282601f106103b057805160ff19168380011785556103de565b828001600101855582156103de579182015b828111156103dd5782518255916020019190600101906103c2565b5b5090506103eb91906103ef565b5090565b61041191905b8082111561040d5760008160009055506001016103f5565b5090565b905600a165627a7a723058209d3103db5d5fe4eca26b9d7a87ca0341efc9f953453e9485b865c7e7651b4e3a0029",
  "source": "pragma solidity ^0.4.24;\r\n\r\ncontract resultData{\r\n    mapping (uint => string) res;\r\n    uint x=0;\r\n    address user;\r\n    function LongRecord() public{\r\n        user = msg.sender;\r\n    }\r\n    function record(string result) public{\r\n        require(msg.sender == user);\r\n        res[x]=result;\r\n        x++;\r\n    }\r\n    function getRecord(uint i) constant public returns (string){\r\n        require(msg.sender == user);\r\n        return res[i];\r\n    }\r\n}",
  "sourcePath": "D:/chain_/ins/ChainOwn/contracts/resultData.sol",
  "compiler": {
    "name": "solc",
    "version": "0.4.24+commit.e67f0147.Emscripten.clang"
  },
  "schemaVersion": "3.0.11",
  "updatedAt": "2019-08-29T16:46:40.722Z",
  "devdoc": {
    "methods": {}
  },
  "userdoc": {
    "methods": {}
  }
}