{
  "contractName": "storageData",
  "abi": [
    {
      "constant": true,
      "inputs": [
        {
          "name": "",
          "type": "uint256"
        }
      ],
      "name": "application",
      "outputs": [
        {
          "name": "blockId",
          "type": "uint256"
        },
        {
          "name": "name",
          "type": "string"
        },
        {
          "name": "plate",
          "type": "string"
        },
        {
          "name": "unix",
          "type": "uint256"
        },
        {
          "name": "amount",
          "type": "uint256"
        },
        {
          "name": "cost",
          "type": "string"
        },
        {
          "name": "userId",
          "type": "uint256"
        },
        {
          "name": "status",
          "type": "string"
        },
        {
          "name": "insId",
          "type": "string"
        }
      ],
      "payable": false,
      "stateMutability": "view",
      "type": "function"
    },
    {
      "constant": false,
      "inputs": [
        {
          "name": "id",
          "type": "uint256"
        },
        {
          "name": "_name",
          "type": "string"
        },
        {
          "name": "plateData",
          "type": "string"
        },
        {
          "name": "amountData",
          "type": "uint256"
        },
        {
          "name": "cost",
          "type": "string"
        },
        {
          "name": "userId",
          "type": "uint256"
        },
        {
          "name": "status",
          "type": "string"
        },
        {
          "name": "insId",
          "type": "string"
        }
      ],
      "name": "apply",
      "outputs": [],
      "payable": false,
      "stateMutability": "nonpayable",
      "type": "function"
    }
  ],
  "bytecode": "0x608060405234801561001057600080fd5b50610993806100206000396000f30060806040526004361061004c576000357c0100000000000000000000000000000000000000000000000000000000900463ffffffff1680637a301cc314610051578063fb3be440146102c3575b600080fd5b34801561005d57600080fd5b5061007c60048036038101908080359060200190929190505050610462565b604051808a8152602001806020018060200189815260200188815260200180602001878152602001806020018060200186810386528e818151815260200191508051906020019080838360005b838110156100e45780820151818401526020810190506100c9565b50505050905090810190601f1680156101115780820380516001836020036101000a031916815260200191505b5086810385528d818151815260200191508051906020019080838360005b8381101561014a57808201518184015260208101905061012f565b50505050905090810190601f1680156101775780820380516001836020036101000a031916815260200191505b5086810384528a818151815260200191508051906020019080838360005b838110156101b0578082015181840152602081019050610195565b50505050905090810190601f1680156101dd5780820380516001836020036101000a031916815260200191505b50868103835288818151815260200191508051906020019080838360005b838110156102165780820151818401526020810190506101fb565b50505050905090810190601f1680156102435780820380516001836020036101000a031916815260200191505b50868103825287818151815260200191508051906020019080838360005b8381101561027c578082015181840152602081019050610261565b50505050905090810190601f1680156102a95780820380516001836020036101000a031916815260200191505b509e50505050505050505050505050505060405180910390f35b3480156102cf57600080fd5b5061046060048036038101908080359060200190929190803590602001908201803590602001908080601f0160208091040260200160405190810160405280939291908181526020018383808284378201915050505050509192919290803590602001908201803590602001908080601f016020809104026020016040519081016040528093929190818152602001838380828437820191505050505050919291929080359060200190929190803590602001908201803590602001908080601f016020809104026020016040519081016040528093929190818152602001838380828437820191505050505050919291929080359060200190929190803590602001908201803590602001908080601f0160208091040260200160405190810160405280939291908181526020018383808284378201915050505050509192919290803590602001908201803590602001908080601f01602080910402602001604051908101604052809392919081815260200183838082843782019150505050505091929192905050506107a8565b005b6000602052806000526040600020600091509050806000015490806001018054600181600116156101000203166002900480601f0160208091040260200160405190810160405280929190818152602001828054600181600116156101000203166002900480156105145780601f106104e957610100808354040283529160200191610514565b820191906000526020600020905b8154815290600101906020018083116104f757829003601f168201915b505050505090806002018054600181600116156101000203166002900480601f0160208091040260200160405190810160405280929190818152602001828054600181600116156101000203166002900480156105b25780601f10610587576101008083540402835291602001916105b2565b820191906000526020600020905b81548152906001019060200180831161059557829003601f168201915b505050505090806003015490806004015490806005018054600181600116156101000203166002900480601f01602080910402602001604051908101604052809291908181526020018280546001816001161561010002031660029004801561065c5780601f106106315761010080835404028352916020019161065c565b820191906000526020600020905b81548152906001019060200180831161063f57829003601f168201915b505050505090806006015490806007018054600181600116156101000203166002900480601f0160208091040260200160405190810160405280929190818152602001828054600181600116156101000203166002900480156107005780601f106106d557610100808354040283529160200191610700565b820191906000526020600020905b8154815290600101906020018083116106e357829003601f168201915b505050505090806008018054600181600116156101000203166002900480601f01602080910402602001604051908101604052809291908181526020018280546001816001161561010002031660029004801561079e5780601f106107735761010080835404028352916020019161079e565b820191906000526020600020905b81548152906001019060200180831161078157829003601f168201915b5050505050905089565b61012060405190810160405280898152602001888152602001878152602001428152602001868152602001858152602001848152602001838152602001828152506000808a81526020019081526020016000206000820151816000015560208201518160010190805190602001906108219291906108c2565b50604082015181600201908051906020019061083e9291906108c2565b50606082015181600301556080820151816004015560a082015181600501908051906020019061086f9291906108c2565b5060c0820151816006015560e08201518160070190805190602001906108969291906108c2565b506101008201518160080190805190602001906108b49291906108c2565b509050505050505050505050565b828054600181600116156101000203166002900490600052602060002090601f016020900481019282601f1061090357805160ff1916838001178555610931565b82800160010185558215610931579182015b82811115610930578251825591602001919060010190610915565b5b50905061093e9190610942565b5090565b61096491905b80821115610960576000816000905550600101610948565b5090565b905600a165627a7a72305820f365d373c5a1d16e6553a0f962d278c5b4557152021a6c46f779aa54c059726d0029",
  "source": "pragma solidity ^0.4.24;\r\n\r\ncontract storageData {\r\n\r\n    struct Insurance{\r\n        uint256 blockId;   //区块号\r\n        string name;//投保人姓名\r\n        string plate;//车牌号\r\n        uint256 unix; //时间戳  \r\n        uint256 amount; // 赔付金额\r\n        string cost;    //维修费，设备状态\r\n        uint userId;  //账户编号 \r\n        string status; //申请状态\r\n        string insId; //理赔单号\r\n    }//定义保险单中的变量\r\n    \r\n    mapping(uint => Insurance) public application; \r\n\r\n    function apply(uint id,string _name,string plateData,uint amountData,string cost,uint userId,string status,string insId) public {\r\n        \r\n        application[id] = Insurance(id,_name,plateData,now,amountData,cost,userId,status,insId);\r\n        \r\n        \r\n    }//存入保险单数据，并以保单号作为主键映射至其他保险数据\r\n}",
  "sourcePath": "D:/chain_/ins/ChainOwn/contracts/storageData.sol",
  "compiler": {
    "name": "solc",
    "version": "0.4.24+commit.e67f0147.Emscripten.clang"
  },
  "schemaVersion": "3.0.11",
  "updatedAt": "2019-08-29T16:46:40.962Z",
  "devdoc": {
    "methods": {}
  },
  "userdoc": {
    "methods": {}
  }
}